:100000000C9477000C94DD000C94DD000C94DD0062
:100010000C94DD000C94DD000C94DD000C94DD00EC
:100020000C94DD000C94DD000C94DD000C94DD00DC
:100030000C94DD000C94DD000C94DD000C94640A3B
:100040000C94DD000C94DD000C949B0E0C94FD0EC2
:100050000C94DD000C94DD000C94DD000C94DD00AC
:100060000C94DD000C94DD000C94DD000C94DD009C
:100070000C94DD000C94DD000C94DD000C94DD008C
:100080000C94DD000C94DD000C94DD00F70FFA0FEA
:10009000FD0F051008100B100E1011101410431056
:1000A00068106D10721077107C1091109510D010A0
:1000B000DB10E910F40FF40FF40FF40F2D113011D1
:1000C00037114A114D115711F40F5A116211651170
:1000D0006D11701178117B1183119A10AF10BB1044
:1000E000D010F40FF40FF40FF40FED101B1180EC8F
:1000F00085BFAF9AA79AAE9AA69A81EE80930083A5
:1001000080E48093018385B78F7785BF80E090E09E
:100110009D9B05C0019641F09D9BF8CFFBCF0196BA
:1001200019F09D99F3CFFBCF85B7806885BFAF9855
:10013000A798AE98A69811241FBECFEFD0E1DEBFDE
:10014000CDBF12E0A0E0B1E0E2E3FDE300E00BBFD1
:1001500002C007900D92AE34B107D9F712E0AEE4B9
:10016000B2E001C01D92AA3BB107E1F78FEF9FE714
:100170009EBF8DBF8FEF9FE78A5B92408158914071
:1001800050F04FEF5EE74A5B524085E992E06AEB40
:1001900072E00E942E030E94B1080E948C0888E43D
:1001A00091E061E472E040E050E020E831E00E943C
:1001B000F5080E9400000C94971E0C940000CF924A
:1001C000DF92EF92FF920F931F936B0198B308E0B9
:1001D00010E002C0000F111F8A95E2F7902B98BB28
:1001E000EE24D7FCE094FE2CC701B6010E940E0657
:1001F00088B30095082308BBC701B6010E940E060C
:100200001F910F91FF90EF90DF90CF9008958B9A00
:100210008A9882B38C6082BB85E691E060E070E0F2
:1002200040E00E94610880E091E066E071E00E9499
:10023000D51490939402809393020E94D11461E0AC
:1002400071E044E451E00E94AA1408952F923F9275
:100250004F925F926F927F928F929F92AF92BF92D6
:10026000CF92DF92EF92FF920F931F93DF93CF9382
:10027000CDB7DEB7A6970FB6F894DEBF0FBECDBFE1
:1002800087B3806F87BB18BA0E9407014EE4842EA3
:1002900042E0942E37E0A32EB12CAC0EBD1E21E41B
:1002A000C22E21E0D22E1E010894211C311C93E0A5
:1002B000492E512C4C0E5D1E85E0682E712C6C0E63
:1002C0007D1E609193027091940289E091E00E94FA
:1002D0006F15609193027091940286E291E00E9402
:1002E0006F1580919302909194020E94BF144091E7
:1002F0009302509194028EE492E062E370E00E94D7
:10030000331500D000D000D0EDB7FEB73196809104
:10031000930290919402ADB7BEB712969C938E93C0
:1003200011978AE391E093838283958284820E946D
:100330005E15ADB7BEB716960FB6F894BEBF0FBE2A
:10034000ADBFC4016AE070E00E94421EFC0100974C
:1003500009F01082F50180E211928A95E9F7850192
:10036000EE24FF24E114F10419F080E090E002C0D3
:100370008EE492E06FE371E00E94231ED8018D931A
:100380009C93892B49F00894E11CF11C0E5F1F4FD0
:10039000B0E1EB16F10431F7E8EEF3E0FC83EB8318
:1003A00081E090E09E838D8300D000D000D0EDB737
:1003B000FEB731968F819885ADB7BEB712969C93E4
:1003C0008E931197D382C282358224820E948A152D
:1003D000EDB7FEB736960FB6F894FEBF0FBEEDBF71
:1003E000E114F104E1F100D000D000D0EDB7FEB788
:1003F000319689859A85ADB7BEB712969C938E9338
:100400001197D382C282558244820E948A15EDB729
:10041000FEB736960FB6F894FEBF0FBEEDBFF1E003
:10042000EF16F104E1F000D000D000D0EDB7FEB738
:1004300031968B859C85ADB7BEB712969C938E93F3
:100440001197D382C282758264820E948A15EDB7A9
:10045000FEB736960FB6F894FEBF0FBEEDBF00E0B4
:1004600010E008C06B817C8189819A810E94DF0045
:100470000F5F1F4F8D819E81081719070CF021CF48
:10048000F1CF0E94EB068DE491E066E271E040E07E
:1004900050E020E033E00E94F5088EEF0E94220435
:1004A0000E949E040E94EA03209152012F3FC1F353
:1004B00095B785B7837E822B85BF85B7806285BF60
:1004C000889585B78F7D85BF85B79C71837E982B76
:1004D00095BFE6CFCF93DF93DC016E5F7F4F643033
:1004E000710510F464E070E06F5F7F4F6E7FED91F7
:1004F000FC911197AD01A0E0B0E0C0E0D0E01BC0DE
:10050000208131812617370780F0109731F08D91C7
:100510009C9111972817390740F42617370719F4CB
:10052000DF01EA010DC0DF01EA01AF014E5F5F4F5D
:100530000280F381E02D309719F79D011097F1F0BB
:100540008D919C911197861B970B12962D913C9142
:1005500013978430910568F0FD01E60FF71F918332
:1005600080833383228311967C936E93F983E8838F
:1005700002C0398328839D012E5F3F4FC901DF915F
:10058000CF910895CF93DF93EC016115710519F4B4
:100590002DEF3FEF5FC0DB011297E881F9814FC07B
:1005A00020813181CF01820F931F8A179B07E9F4C5
:1005B0006D917C91620F731F71836083DF01A60FC1
:1005C000B71F82819381A817B90709F041C08D91A7
:1005D0009C911197680F791F7183608312968D919A
:1005E0009C9113979383828333C0AE17BF07E0F4C7
:1005F000B983A8834D915C911197CD01840F951F0C
:100600008E179F0761F4240F351F11963C932E938C
:100610008281938113969C938E93129719C013969F
:10062000FC93EE93129714C0A817B90718F42FEF94
:100630003FEF10C0EF0122960280F381E02D30974A
:1006400009F0AECF13961C921E921297B983A8831D
:1006500020E030E0C901DF91CF9108956F5F7F4FB7
:10066000FB01EE7F61507040640F751F6E1B7F0BA6
:100670006E7F61937193BF010E94C2020895CF9370
:10068000DF93DC01EB0158967C936E935797159698
:100690001C921E9214970FB6F8940F92E881F9817C
:1006A0008FEFEF3FF80761F414968D919C911597A9
:1006B000019615969C938E931497E0E0F0E015C098
:1006C000309799F00F900FBE52969C91529707C0A9
:1006D000EF0122960280F381E02D309719F0828994
:1006E0009817B0F70FB6F8940F921396FC93EE9309
:1006F0001297B983A8831296ED91FC9113973097C6
:1007000091F084819581892B71F014962D913C9103
:10071000159784819581820F931F15969C938E93D4
:100720001497158214820F900FBEDF91CF91089518
:10073000CF93DF93DC01EB010FB6F8940F92E881C1
:10074000F9810F900FBE8FEFEF3FF80799F534C096
:10075000EA17FB0751F50FB6F8940F9212968D9198
:100760009C9113979983888314968D919C911597EA
:10077000892B81F01296ED91FC911397309731F00F
:1007800014968D919C9115979583848315961C9250
:100790001E9214970F900FBE13961C921E921297E2
:1007A00058961C921E92579707C0EF01229602801E
:1007B000F381E02D309761F6DF91CF910895FB0131
:1007C000168A158A82E08787CB0169E972E00E9468
:1007D0003F030895E0919D02F0919E02309751F001
:1007E0006389748985E992E00E94C20210929E0298
:1007F00010929D020895CF93DF93C0919702D091FC
:1008000098020E94EA0340919B0250919C02E7E902
:10081000F2E00BC028813981C417D50719F4208371
:10082000318305C0FE01C901EC01209799F7809141
:100830009B0290919C0290939E0280939D02DF9177
:10084000CF9108950F931F93182FE0919B02F09181
:100850009C020289CF0169E972E00E949803E0914D
:100860009B02F0919C02128B1F3F31F0CF0169E98E
:1008700072E00E943F0302C00E94FB03E0919B02D2
:10088000F0919C028091990290919A02E817F907E1
:1008900019F481E0878709C082E087870FB6F89452
:1008A0000F920E94BA080F900FBE802F1F910F91D8
:1008B0000895CF93DF93C0919702D091980220C002
:1008C0000FB6F8940F928C819D810F900FBE892BEB
:1008D000A1F0EF89F88D0FB6F8940F928C819D816D
:1008E00001979D838C830F900FBE808191818F5FD4
:1008F0009F4F19F0CF010E94F3060990D881C02DB7
:100900002097F1F60E945D06E0919B02F0919C0217
:100910008091990290919A02E817F90761F0878512
:10092000813011F482E087870FB6F8940F920E940D
:10093000BA080F900FBEDF91CF910895E0919B020E
:10094000F0919C0282819381892B69F0CF0169E942
:1009500072E00E94980380919B0290919C0269E949
:1009600072E00E943F030E94590408958091A10201
:100970009091A202A091A302B091A4020196A11DA0
:10098000B11D8093A1029093A202A093A302B09301
:10099000A4020895CF93DF93EC011B821A82E091A9
:1009A0009F02F091A00223C0288539854A855B8586
:1009B00080859185A285B385281739074A075B078B
:1009C00048F4821B930BA40BB50B80879187A287F9
:1009D000B3870FC0281B390B4A0B5B0B288739875D
:1009E0004A875B87FB83EA830190F081E02D309793
:1009F000D9F6F983E883309711F0D383C283EA8173
:100A0000FB81309719F0D183C08304C0D093A0023A
:100A1000C0939F02DF91CF910895CF93DF93FC01A4
:100A20001482158216821782158614868085918518
:100A3000A285B3850097A105B10561F1A281B381BB
:100A400080819181109719F08D939C9304C09093AD
:100A5000A00280939F02C081D1812097A1F0828162
:100A600093819B838A8388859985AA85BB85208508
:100A7000318542855385820F931FA41FB51F888738
:100A80009987AA87BB871086118612861386CF01A5
:100A90000E94CA04DF91CF91089560918402709101
:100AA000850280918602909187026115710581050A
:100AB000910569F480E090E00E9495099068609348
:100AC00084027093850280938602909387029B0133
:100AD000AC015F77B901CA010895EF92FF920F93BD
:100AE0001F937B018C010E944D059B01AC01232FBC
:100AF000342F452F5527C801B7010E949B1C24E8BD
:100B000037ED47E150E00E94BA1CC9010197F1F7A7
:100B10001F910F91FF90EF9008951F93182F07C01A
:100B200068EE73E080E090E00E946D0511501123A3
:100B3000B9F71F910895AF92BF92CF92DF92EF92D3
:100B4000FF920F93CF93DF936B017C01EA01590170
:100B500085E992E060E170E00E946A02FC01009782
:100B600081F10FB6F8940F928091A1029091A202A8
:100B7000A091A302B091A4020F900FBE2091800219
:100B8000309181024091820250918302821B930B2B
:100B9000A40BB50B8C0D9D1DAE1DBF1D80879187CD
:100BA000A287B38700FF05C01482158216821782C0
:100BB00004C0C482D582E682F782D587C487B7860F
:100BC000A686CF01DF91CF910F91FF90EF90DF903C
:100BD000CF90BF90AF9008950F93CF93DF930E9473
:100BE0009B05EC01009711F00E94CA04CE01DF9131
:100BF000CF910F910895CF92DF92EF92FF920F93D2
:100C00007A0169010E949E09A70196010E94EC05E4
:100C10000F91FF90EF90DF90CF900895AF92BF9229
:100C2000CF92DF92EF92FF920F93CF93DF935B010E
:100C30006C01611571058105910599F1C9E9D2E051
:100C400080919B0290919C02BE010E949803E090CB
:100C50009B02F0909C0283E0F7018787C601B501F3
:100C60004FED53E0970101E00E94FB05F701968BE1
:100C7000858B892B19F00E94590415C0E0919B02C5
:100C8000F0919C02D08FC78B8091990290919A022B
:100C90009383828381E08787F0939A02E09399029D
:100CA00002C00E949E04DF91CF910F91FF90EF90C0
:100CB000DF90CF90BF90AF900895EF92FF920F9387
:100CC0001F93CF93DF930FB6F8940F922091A10258
:100CD0003091A2024091A3025091A4020F900FBE46
:100CE0008091800290918102A0918202B091830252
:100CF00079018A01E81AF90A0A0B1B0B209380027A
:100D000030938102409382025093830251C08885C0
:100D10009985AA85BB85E816F9060A071B0760F4C2
:100D20008E199F09A00BB10B88879987AA87BB876B
:100D3000EE24FF24870108C0E81AF90A0A0B1B0BEE
:100D4000188619861A861B8688859985AA85BB858B
:100D50000097A105B10561F5EC85FD85309721F07F
:100D60006E857F85CE010995E0919F02F091A002EA
:100D70000190F081E02DF093A002E0939F02309764
:100D800011F0138212828C819D81AE81BF81888790
:100D90009987AA87BB870097A105B10531F485E93A
:100DA00092E0BE010E94C20203C0CE010E94CA04AA
:100DB000C0919F02D091A002209731F0E114F1047C
:100DC0000105110509F0A3CFDF91CF911F910F917C
:100DD000FF90EF90089586EB94E00E94CC0987B7CE
:100DE000826087BF0895CF93DF93DC010FB6F8943C
:100DF0000F92CD91DC9111970F900FBE8FEFCF3FE7
:100E0000D80709F43AC0209771F10FB6F8940F9201
:100E1000EA81FB811196FC93EE938C819D81892B55
:100E200071F0309729F08C819D819583848305C072
:100E30008FEF9FEF11969C938E931D821C820F90D3
:100E40000FBE8D899E89009721F00E940D051E8A94
:100E50001D8A82E08F87CE0169E972E00E943F031C
:100E600021E030E00CC00FB6F8940F928FEF9FEFA7
:100E700011969C938E930F900FBE20E030E0C90135
:100E8000DF91CF9108950F931F93CF93DF938C0140
:100E90000FB6F8940F92FC01808191810F900FBEE4
:100EA000FFEF8F3F9F0749F40FB6F8940F92F801B8
:100EB000118210820F900FBE02C0892B19F4C0E07E
:100EC000D0E013C0C0E0D0E0C8010E94F306C80F14
:100ED000D91F0FB6F8940F92F801808191810F907D
:100EE0000FBE01978E5F9F4F78F3CE01DF91CF91B8
:100EF0001F910F9108950F931F930E944307182F7E
:100F0000092F0E949E04812F902F1F910F91089509
:100F1000CF93DF93AC01DB010FB6F8940F92CD9124
:100F2000DC9111970F900FBE8FEFCF3FD80799F547
:100F300034C08D899E892A813B818417950741F5AC
:100F40000FB6F8940F9211963C932E938C819D814D
:100F5000892B81F0EA81FB81309729F08C819D817A
:100F60009583848305C08FEF9FEF11969C938E939A
:100F70001D821C820F900FBE82E08F87CE0169E92F
:100F800072E00E943F038FEF9FEF9E8B8D8B05C019
:100F9000DE011296E901209761F6DF91CF91089565
:100FA000CF92DF92EF92FF920F931F93CF93DF9335
:100FB0008C016A017B010FB6F8940F92FC018081CD
:100FC00091810F900FBE8F5F9F4F59F40FB6F89429
:100FD0000F92F801118210820F900FBE0E949E04A2
:100FE00032C080919B0290919C0269E972E00E945C
:100FF000980380919B0290919C02B8010E943F034C
:10100000C0919B02D0919C0283E08F87C114D104D0
:10101000E104F10459F0C701B60148E857E098012E
:1010200001E00E94FB059E8B8D8B02C01E8A1D8AEB
:101030000E945904E0919B02F0919C028589968957
:101040008F5F9F4F19F020E030E004C0168A158AA8
:101050002FEF3FEFC901DF91CF911F910F91FF90CB
:10106000EF90DF90CF900895FC010FB6F8940F92A7
:10107000808191818F5F9F4F11F4118210820F90B8
:101080000FBECF010E94D00708950F931F93CF93F7
:10109000DF938C01C0918802D09189020AC0CE01F1
:1010A0000296B8010E944D1E009729F00990D88140
:1010B000C02D2097A1F7CE01DF91CF911F910F9105
:1010C0000895CF93DF93EC016115710511F07D87D1
:1010D0006C8741114E87CE0102960E944508892BEC
:1010E000A9F4EB89FC89309721F0CE010995892B71
:1010F00069F4809188029091890299838883D093C2
:101100008902C093880220E030E002C02FEF3FEF59
:10111000C901DF91CF91089580E090E065EA72E027
:1011200043E150E00E949F14892B89F48091A5022D
:10113000833169F486EA92E063E571E042E050E0D1
:101140000E94351E009719F420E030E008C088EABC
:1011500092E066E571E00E94561E2FEF3FEFC90155
:10116000089508959F918F910F900BBE0F900FBE21
:101170001F9018952F923F924F925F926F927F929D
:101180008F929F92AF92BF92CF92DF92EF92FF9297
:101190000F931F93CF93DF938DB79EB7E0919B0280
:1011A000F0919C02918B808BE0919902F0919A02D0
:1011B000F0939C02E0939B0281E08787808991896C
:1011C0008DBF9EBFDF91CF911F910F91FF90EF9048
:1011D000DF90CF90BF90AF909F908F907F906F9057
:1011E0005F904F903F902F900895AF92BF92CF9213
:1011F000DF92EF92FF920F931F93CF93DF93F82E1E
:10120000E92E6B01B42EA52EE901B901675E7F4F6F
:1012100085E992E00E946A02FC01009719F420E03F
:1012200030E077C0C80FD91FAE0147505040BE0113
:101230006B5170408E010A5F1F4F8F2D9E2D9C01B8
:1012400088E0D9010D909D01D8010D928D0181504A
:10125000C1F71E8661507040798B688B6F5F7F4F3E
:10126000FC8BEB8B8FEE9EEBADEABEED8083918322
:10127000A283B38384839583A683B7838087918772
:10128000A287B38784879587A687B78780E48A8BF0
:10129000FA01D582C68280E8838312821482B182E9
:1012A000A08282EB98E0DB0152969C935297539672
:1012B0008C93809197029091980299838883D09320
:1012C0009802C093970282E08F871E8A1D8A188E2B
:1012D0001F8ACE0169E972E00E943F03E0919B0200
:1012E000F0919C02309721F40FB6F8940F925CCFE6
:1012F0008091990290919A02E817F90749F082E0EB
:1013000087870FB6F8940F920E94BA080F900FBE0D
:101310009E01C901DF91CF911F910F91FF90EF9036
:10132000DF90CF90BF90AF90089560918A02709146
:101330008B0280918C0290918D020895603020E89C
:1013400072072EE3820720E0920770F028EE33E068
:1013500040E050E00E94BA1C6AE0220F331F441F95
:10136000551F6A95D1F715C02AE0660F771F881FB1
:10137000991F2A95D1F769517C4F8F4F9F4F28EEC7
:1013800033E040E050E00E94BA1CC901DA019C0140
:10139000AD01B901CA010895BC0187B78D7F87BF30
:1013A00080B7886080BF12BE82E083BF80B790E0C4
:1013B00087709070892BD1F781E086BF0FB6F894C3
:1013C0000F9281E090E0A0E0B0E0B6B7B170E9F331
:1013D000B6BF0894811D911DA11DB6B7B170C9F3A8
:1013E000BB270F900FBEE7E0880F991FAA1FBB1FF6
:1013F000EA95D1F780938A0290938B02A0938C0296
:10140000B0938D0287B78D7F87BF80B7886080BF1C
:1014100012BE89E083BF8FE181BF80B790E0877003
:101420009070892BD1F782E086BF8FE591E040E094
:1014300050E00E94320F08959C01FB0147B74270B3
:1014400087B78D7F87BF20313105D1F0213131053C
:101450003CF42115310581F02130310551F40DC0E6
:101460002231310569F122313105DCF020323105BC
:10147000D9F02FEF3FEF1EC040E082E086BF18C0DA
:1014800006B601FE05C081E090E09183808302C032
:10149000118210824423A1F0808191818068918320
:1014A000808320E030E008C08EE090E0918380836C
:1014B00020E030E0442331F087B7826087BF02C06C
:1014C00020E030E0C90108951F920F920FB60F92ED
:1014D0000BB60F9211242F933F934F935F936F930B
:1014E0007F938F939F93AF93BF93EF93FF938FE57A
:1014F00091E00E94270FFF91EF91BF91AF919F91D3
:101500008F917F916F915F914F913F912F910F90AC
:101510000BBE0F900FBE0F901F901895FC016281BB
:10152000738120918F02422F50E0CA018073907026
:10153000892B89F024FF04C083E18CB9206403C0A7
:1015400081E18CB92F7B20938F0280918F028F7C59
:1015500080938F02089527FF02C0559808958285D1
:101560009385892B89F1828593850197938782875B
:1015700080919002882311F0509A01C05098DB01AD
:101580008D918CB986819781A817B90711F4A48130
:10159000B581B383A28322853385848595852817F9
:1015A000390759F5A089B1891097A9F08FEFAF3F9E
:1015B000B80719F114968D919C911597019615967F
:1015C0009C938E9314970895559813861286A0893C
:1015D000B189109729F48FEF9FEF918B808B08953D
:1015E0008FEFAF3FB80749F014968D919C911597F6
:1015F000019615969C938E9314970895CF93DF933D
:10160000282F5BB180918E02582B50938E026CB1C3
:1016100040918F02442361F0633119F4559840687A
:1016200004C0613129F4559A4F7740938F025DC011
:10163000A22FB92F1A962D913C911B9718968D9138
:101640009C9119972817390720F0586050938E0203
:101650004CC0E9012196232BB9F45096ED91FC91F1
:101660005197309739F48FEF9FEF51969C938E935B
:1016700050971FC08FEFEF3FF807D9F08481958115
:1016800001969583848315C0442399F01E968D910D
:101690009C911F97C817D90760F046FD0AC05D9B53
:1016A00005C083E18CB940644F7D01C04062409326
:1016B0008F02ED91FC91119761931196FC93EE933B
:1016C0002D913C91119716968D919C911797281703
:1016D000390739F414968D919C91159711969C9326
:1016E0008E931B96DC93CE931A97DF91CF9108953A
:1016F000529B02C089E008958091950082FF08C046
:101700008091950081FD02C087E0089588E00895EA
:101710008091950081FD02C085E0089586E00895DE
:101720008091950085FD02C080E00895809195002C
:1017300084FD02C082E0089581E0089580919500C3
:1017400083FD02C081E0089582E0089580918E02B9
:10175000682F70E0CB0124E0969587952A95E1F7F4
:101760009C0140E050E0217030704070507063FD8B
:10177000226062FD246080918F02882321F086FD23
:10178000426087FD486041FF416043FF44608091B3
:101790009002882321F0CA01B901806403C0CA0104
:1017A000B9018068589B04C09B01AC01406103C033
:1017B0009B01AC014062B901CA010895EF92FF920A
:1017C0000F931F937B018C0180918F028823D9F0A6
:1017D0000FB6F8940F9200FF02C08F7B03C001FF89
:1017E00003C0806480938F0202FF04C080918F0247
:1017F0008F7705C003FF05C080918F0280688093BA
:101800008F020F900FBE06FF03C081E0809390020D
:1018100007FF02C01092900204FD589A05FD5898E7
:10182000C70181709070892B29F080918E028F7E84
:1018300080938E02E1FE05C080918E02877F8093A7
:101840008E02E2FE05C080918E028B7F80938E0215
:101850000E94A60B687F6E157F058007910719F41B
:1018600020E030E002C02FEF3FEFC9011F910F9140
:10187000FF90EF9008958091950086FF0BC0129B1A
:1018800002C093E001C091E08091950080FF07C005
:10189000946005C0599B02C090E201C090E0892F7E
:1018A000089580918F02882329F420E030E040E001
:1018B00050E004C020E230E040E050E0B901CA014D
:1018C0000895EF92FF920F931F937B018C0165FFA8
:1018D0000DC080918F02882381F40FB6F8940F9287
:1018E00081E480938F020F900FBE07C00FB6F8946B
:1018F0000F9210928F020F900FBE80918F0288235B
:1019000029F420E030E040E050E004C020E230E084
:1019100040E050E02E153F054007510719F420E044
:1019200030E002C02FEF3FEFC9011F910F91FF90F0
:10193000EF900895559A089590918F029923A9F0F8
:1019400096FF13C00FB6F8940F925D9B04C081E11F
:101950008CB99F7E01C0906190938F0280918F021D
:101960008F7980938F020F900FBE08950FB6F89471
:101970000F925798569855980F900FBE8AE00E9484
:101980008D055498539808951F93182F0E94B60CF4
:10199000812F10FF15C011FF02C0129A01C01298CA
:1019A00082FF04C080919500816003C08091950002
:1019B0008E7F8093950059988091950080640DC02A
:1019C00015FF02C0599A01C05998809195008E7FE9
:1019D00080939500809195008F7B809395000FB642
:1019E000F8940F9288EB8AB90F900FBE0E943B0CBF
:1019F000811719F420E030E002C02FEF3FEFC9015A
:101A00001F9108951F93182F0E94B60C113021F4D6
:101A100080919500877F05C0123029F48091950050
:101A20008860809395000FB6F8940F9288EB8AB97E
:101A30000F900FBE8091950083FD02C081E001C030
:101A400082E0811719F420E030E002C02FEF3FEF71
:101A5000C9011F9108951F93182F0E94B60C1130D1
:101A600071F0113018F01230C1F40DC08091950062
:101A70008F7E80939500809195008F7D0CC0809122
:101A80009500806103C0809195008F7E80939500C2
:101A9000809195008062809395000FB6F8940F9224
:101AA00088EB8AB90F900FBE0E94900B811719F432
:101AB00020E030E002C02FEF3FEFC9011F910895F1
:101AC0001F93182F0E94B60C5298809195008D7F1D
:101AD00080939500809195008B7F809395001730BF
:101AE000A1F0183018F41630A9F405C0183041F0F0
:101AF000193081F404C080919500826009C0529A27
:101B0000809195008260809395008091950084601B
:101B1000809395000FB6F8940F9288EB8AB90F90D6
:101B20000FBE0E94780B811719F420E030E002C04C
:101B30002FEF3FEFC9011F9108958F929F92AF92AF
:101B4000BF92CF92DF92EF92FF920F931F9399B0C3
:101B5000809090008091950086FF06C052E0A52EEF
:101B6000B12CC12CD12C0DC0599906C040E1A42E36
:101B7000B12CC12CD12C05C038E0A32EB12CC12C26
:101B8000D12C0E944D057B018C01892D90E0382DD0
:101B900020E0282B392B40E050E02F5F3F4F4F4F84
:101BA0005F4FC601B5010E949B1C9B01AC01C8019F
:101BB000B7010E94BA1CCA01B9011F910F91FF9091
:101BC000EF90DF90CF90BF90AF909F908F9008954F
:101BD000EF92FF920F931F937B018C010E94B60C32
:101BE0008091950086FD11C0599B08C0E2E0EE0C83
:101BF000FF1C001F111FEA95D1F707C073E0EE0C20
:101C0000FF1C001F111F7A95D1F70E944D05A801F6
:101C100097010E94BA1C2F5F3F4F4F4F5F4F569561
:101C20004795379527952150304029B9309390003A
:101C30000FB6F8940F9288EB8AB90F900FBE80E030
:101C400090E01F910F91FF90EF90089589EE91E041
:101C500060E070E040E050E00E94320F8FEE91E0D3
:101C600060E070E040E050E00E94320F80E090E0E1
:101C7000089589EE91E06EEF7AE04EEA51E00E941D
:101C8000320F892BA9F48FEE91E06EE87AE048E9F3
:101C900051E00E94320F892B19F420E030E00AC095
:101CA00089EE91E060E070E040E050E00E94320F89
:101CB0002FEF3FEFC9010895FB014AB140785798D3
:101CC00080319105B9F0813191052CF4009771F0C4
:101CD000019749F40CC08231910549F18231910597
:101CE000CCF08097D1F02FEF3FEF1DC040E08CB1DA
:101CF0008CB117C05F9B05C081E090E09183808329
:101D000002C011821082442391F080819181806809
:101D10009183808320E030E008C080E190E09183EF
:101D2000808320E030E0442321F0579A02C020E075
:101D300030E0C90108951F920F920FB60F920BB6B3
:101D40000F9211242F933F934F935F936F937F9341
:101D50008F939F93AF93BF93EF93FF9389EE91E09F
:101D60000E94270FFF91EF91BF91AF919F918F91AB
:101D70007F916F915F914F913F912F910F900BBE8B
:101D80000F900FBE0F901F901895FB014AB1407243
:101D900055988131910501F1823191052CF400971C
:101DA00041F1409731F408C08231910511F18097DB
:101DB000B1F02FEF3FEF19C05D9B05C081E090E0CF
:101DC0009183808302C011821082442391F080812C
:101DD000918180689183808320E030E008C080E1B9
:101DE00090E09183808320E030E0442321F0559AF5
:101DF00002C020E030E0C90108951F920F920FB693
:101E00000F920BB60F9211242F933F934F935F9332
:101E10006F937F938F939F93AF93BF93EF93FF93B2
:101E20008FEE91E00E94270FFF91EF91BF91AF914C
:101E30009F918F917F916F915F914F913F912F91E2
:101E40000F900BBE0F900FBE0F901F901895DC01E6
:101E50001296ED91FC911397309719F08D919C910A
:101E600009950895EF92FF920F931F93CF93DF93FD
:101E7000EC017B018A01EC81FD81309719F420E0AF
:101E800030E006C080E090E060E070E009959C01E1
:101E900019830883FB82EA82C901DF91CF911F91E8
:101EA0000F91FF90EF9008950F931F93CF93DF93BF
:101EB000FC01C189D289EDADFEAD09958C01009779
:101EC00049F4C75BDF4FE881F98160E072EC81E0A3
:101ED00090E00995C801DF91CF911F910F9108956E
:101EE000DC011296ED91FC9113970188F289E02DA7
:101EF0000FB6F8940F9280A991A90F900FBEBC0164
:101F000080E090E00895CF92DF92EF92FF920F93DE
:101F10001F93CF93DF93EC018B017A0169018C81D0
:101F20009D81288539850FB6F8940F9219861886F9
:101F30000F900FBE2617370779F0232B11F00E9460
:101F4000CC150115110511F1C8010E94D215009799
:101F500031F42FEF3FEF1CC061157105B9F09D837F
:101F60008C83998388839B838A83800F911F9F83AF
:101F70008E83FD86EC86DF86CE861B861A860FB69C
:101F8000F8940F92198708870F900FBE20E030E079
:101F9000C901DF91CF911F910F91FF90EF90DF90DA
:101FA000CF900895CF92DF92EF92FF920F931F93FD
:101FB000CF93DF93FB016A01DA01ED90FD900D9163
:101FC0001C912E2DDC015196CD91DC915297E15060
:101FD000F140E133F10540F4EA5BFF4FEE0FFF1FE4
:101FE0000590F491E02D09940FEF1FEF97C1C75BA7
:101FF000DF4F43C0C55BDF4FD5C0C35BDF4FE88118
:10200000F981822F09958C0189C1C15BDF4F2AC1FB
:10201000CF5ADF4FF4CFCD5ADF4F24C1CB5ADF4F19
:10202000EECFC95ADF4F1EC1E6FE11C06EA57FA5D7
:102030004AA95BA92CA93DA9CE0186960E94830FCF
:10204000CD5BDF4FE881F981C354D0400995E7FEAD
:102050000AC0688D798D4C8D5D8D2E8D3F8DCE01A2
:1020600040960E94830FC75ADF4F8FE39FEFAFEF79
:10207000BFEFE822F9220A231B23E881F981C80176
:10208000B7010995C0CFC55ADF4FE881F981CB551B
:10209000D04009959B01AC01D6016D937D938D9342
:1020A0009C93139788A999A9892B31F42064F60190
:1020B00020833183428353838A8D9B8D892B09F042
:1020C0002BC1F60180819181A281B381806820C1FA
:1020D000E886F9860A871B871FC188859985AA85A6
:1020E000BB8515C1EC86FD860E871F8715C18C85C3
:1020F0009D85AE85BF850BC1688179818A819B8171
:10210000EE2031F0B0E4CB2ED12CE12CF12C70C0BC
:10211000AFEBCA2EAFEFDA2EAFEFEA2EAFEFFA2E0B
:1021200074C0888186FF92C08CC0C880D980EA8044
:10213000FB806FC0688179818A819B81EE2031F0BC
:10214000C12CF8E0DF2EE12CF12C52C0EFEFCE2EA7
:10215000E7EFDE2EEFEFEE2EEFEFFE2E56C0C95B5F
:10216000DF4FE881F9810995D6016D937D938D93B9
:102170009C931397D1C0688179818A819B81EE20DD
:1021800031F0C12C50E1D52EE12CF12C31C04FEFB4
:10219000C42E4FEED42E4FEFE42E4FEFF42E35C069
:1021A000C95BDF4FE881F9810995F601608371838E
:1021B00082839383B1C088819981AA81BB81EE20FB
:1021C00011F0806801C08F7788839983AA83BB83CD
:1021D000A3C0888187FF3AC034C0688179818A8131
:1021E0009B81EE2051F0C12C34E0D32EE12CF12C58
:1021F000C62AD72AE82AF92A0CC02FEFC22E2BEFC5
:10220000D22E2FEFE22E2FEFF22EC622D722E82277
:10221000F922CB5BDF4FE881F981C554D040C7017B
:10222000B60109958C01009709F078C0C882D9825F
:10223000EA82FB8273C088819981AA81BB8192FF67
:1022400005C081E090E0A0E0B0E061C0D6011D9241
:102250001D921D921C9213975FC0C35ADF4FCFCEC1
:10226000C15ADF4FE881F981099590E04EC04C8D4D
:102270005D8D2E8D3F8DCE014096B7010E94830F5C
:102280008C01009709F04AC0CD5BDF4FE881F981EE
:10229000099544C0888D998D38C04AA95BA92CA99D
:1022A0003DA9CE018696B7010E94830FACCE8EA5C4
:1022B0009FA52BC00FB6F8940F92FD8EEC8E0F9059
:1022C0000FBE2AC08C8D9D8D20C00FB6F8940F9242
:1022D000FF8EEE8E0F900FBE1FC08E8D9F8D15C08E
:1022E0000FB6F8940F92FBAAEAAA0F900FBE14C083
:1022F0008AA99BA90AC00FB6F8940F92FDAAECAA6E
:102300000F900FBE09C08CA99DA9A0E0B0E0F60116
:1023100080839183A283B38300E010E0C801DF9142
:10232000CF911F910F91FF90EF90DF90CF90089584
:10233000AF92BF92CF92DF92EF92FF920F931F93D3
:10234000CF93DF935C017A01FC01C189D28913E04C
:10235000C12ED12CC422D522C114D10481F0CE01CA
:10236000409660E470E048E250E028E330E00E94EC
:10237000830F892BA1F4F1E0CF16D10499F0CE019F
:10238000869660E071E040ED50E020EF30E00E9482
:10239000830F892B39F08C899D890E94CC150FEF12
:1023A0001FEF32C086E090E00E94D215FC018C0144
:1023B000009739F48C899D890E94CC158AA59BA52C
:1023C000ECCF80E090ECE822F92288819981AA8103
:1023D000BB8120E0E21620E8F20611F48F7701C0FD
:1023E000806888839983AA83BB8311821082B38219
:1023F000A2821582148281E0C816D10429F0CD5B37
:10240000DF4FE881F9810995C801DF91CF911F91D4
:102410000F91FF90EF90DF90CF90BF90AF90089515
:10242000AF92BF92CF92DF92EF92FF920F931F93E2
:10243000CF93DF93EC015A010FB6F8940F928A8D77
:102440009B8D860F971F9B8F8A8F0A8D1B8D0F90F8
:102450000FBE90E2C92ED12CCC0EDD1E81E4E82EF9
:10246000F12CEC0EFD1E14C0D701ED91FC910995E5
:102470004C855D856E857F85C6010E94D007892BBE
:1024800051F40FB6F8940F920A8D1B8D0F900FBE6A
:10249000A016B10648F3C801DF91CF911F910F91AB
:1024A000FF90EF90DF90CF90BF90AF900895EF92A4
:1024B000FF920F931F93CF93DF937C01DC01129661
:1024C000ED91FC911397C189D289CE0160E070E053
:1024D00040E050E00E941012892B19F00FEF1FEF1F
:1024E00002C000E010E0C75ADF4FE881F981C9550A
:1024F000D04060E072E080E090E00995C7010E9462
:10250000CC15CE01409660E070E040E050E020E065
:1025100030E00E94830FCE01869660E070E040E0DC
:1025200050E020E030E00E94830FCE01C6960E946A
:102530007B07C801DF91CF911F910F91FF90EF9022
:1025400008958F929F92AF92BF92CF92DF92EF92B7
:10255000FF920F931F93CF93DF936B017A015B017F
:10256000DC011296ED91FC911397C189D289888183
:102570009981AA81BB8193FF0AC07BAF6AAF59AF33
:1025800048AFCD5BDF4FE881F9810995B4C06EA5F6
:102590007FA56115710509F4ABC0C114D10471F4B4
:1025A0004AA95BA92CA93DA9CE0186960E94830F5A
:1025B000CD5BDF4FE881F98109951EC026E3822EAD
:1025C000912C8C0E9D1E8E010D5B1F4F0FB6F89443
:1025D0000F92A8A9B9A90F900FBE1097A9F4D8011E
:1025E000ED91FC910995488559856A857B85C401E3
:1025F0000E94D007892B19F0EE24FF247CC08EA501
:102600009FA5892B19F774C0888187FF33C000E02C
:1026100010E040E050E07AE029C04A175B0708F07C
:102620004BC0E8A5F9A56191F9A7E8A728A539A5A8
:102630008CA59DA52817390721F48AA59BA599A7E4
:1026400088A76D3011F06A3049F48CAD882311F001
:10265000861751F46CAFF501719303C01CAEF50100
:1026600061935F010F5F1F4F4F5F5F4F0E151F0597
:10267000A0F222C08701AE15BF0508F48D0140E02D
:1026800050E016C0E8A5F9A5D601A40FB51F8191A9
:102690008C93F9A7E8A728A539A58CA59DA528178F
:1026A000390721F48AA59BA599A788A74F5F5F4F9B
:1026B0004017510738F3A80141155105B9F00FB67D
:1026C000F8940F9288A999A9841B950B99AB88ABB4
:1026D0000F900FBE28A939A98AA99BA928173907E5
:1026E00028F4CD5BDF4FE881F9810995780103C0BB
:1026F000EE24EA94FE2CC701DF91CF911F910F9138
:10270000FF90EF90DF90CF90BF90AF909F908F9011
:1027100008958F929F92AF92BF92CF92DF92EF92E5
:10272000FF920F931F93DF93CF9300D0CDB7DEB707
:10273000FB016A015901DC0151968D909C905297E2
:10274000D4012D913D914D915C91139734FF25C09B
:1027500095967C936E9394979396DC92CE929297F3
:10276000E1E4F0E08E0E9F1ED401ED91FC918FEB21
:102770009FEF880E991E0995D4011C964D915D918D
:102780006D917C911F97C40180960E9434088C0142
:10279000009709F0B4C08601B2C0D40158968D915B
:1027A0009C915997892B19F40FEF1FEFA8C0611561
:1027B000710549F4C40160E070E040E050E00E941F
:1027C00010128C019CC079018A0179E01695079559
:1027D000F794E7947A95D1F7BE2DB170BA8367E08C
:1027E00056954795379527956A95D1F7822F817031
:1027F00089830FB6F8940F92D4015A964D915C914B
:102800005B970F900FBE7F0100E010E060E070E08A
:102810005BC09B01240F351FF401868D978D28170F
:10282000390788F0448D558DC4010E941012AC0107
:10283000D4015C968D919C915D978417950708F45F
:102840005EC060E070E0A114B10419F0F70184915A
:1028500002C0D7018C91B981B13069F48A3081F41A
:10286000EA81E13021F4F2E0FA83F98302C082E0E8
:1028700089838DE00AC09981923011F4A1E0A98387
:102880000894E11CF11C0F5F1F4FD4015096ED918D
:10289000FC91519781935196FC93EE9350975096EB
:1028A0002D913C91519756968D919C915797281751
:1028B000390741F454968D919C91559751969C936C
:1028C0008E9350976F5F7F4F0C151D050CF4A1CFB1
:1028D00061157105A1F00FB6F8940F92F401828D85
:1028E000938D680F791F738F628F0F900FBE81E4F5
:1028F00090E0880E991ED401ED91FC910995C801D4
:102900000F900F90CF91DF911F910F91FF90EF905B
:10291000DF90CF90BF90AF909F908F900895FC0173
:102920008281938121E030E00E9489130895FC01A7
:102930008281938120E030E00E94891308950E94F3
:10294000A21408959C01CB01B9010E94841E80E06D
:1029500090E00895CF93DF93DC011296CD91DC9146
:102960001397209729F41B96ED91FC911C9703C0B7
:10297000ED89FE89CE010995DF91CF910895FC0183
:102980008081918160E070E040E050E00E94011C95
:10299000892B19F420E030E002C02FEF3FEFC9018E
:1029A0000895FC01808191810895CF92DF92EF928A
:1029B000FF920F931F93CF93DF936C01CB010E9483
:1029C0001A1C7C012FEF8F3F920709F440C0EBEFF8
:1029D000F1E003E010E00DC00F5F1F4F32960830AA
:1029E000110539F487E190E09093B9028093B80221
:1029F0002EC080819181892B79F787E090E00E9439
:102A0000D215EC01000F111F0B501E4FD801CD93B2
:102A1000DC932097E1F0C601B7010E94E21599838B
:102A20008883D801ED91FC918F5F9F4F39F4CF01DE
:102A30000E94CC15F8011182108209C0F382E28253
:102A40001482D801ED91FC911682158202C0E0E05B
:102A5000F0E0CF01DF91CF911F910F91FF90EF90A8
:102A6000DF90CF900895CF92DF92EF92FF920F9375
:102A70001F93CF93DF937C016A018B01E70110C0A4
:102A8000C6010E944E1C2FEF8F3F920721F418823F
:102A9000EE24FF2409C08993015010400A9719F0D1
:102AA000023011056CF71882C701DF91CF911F9199
:102AB0000F91FF90EF90DF90CF900895DF93CF9329
:102AC000CDB7DEB79E01275F3F4F8D819E816F811D
:102AD0007885A9010E947F15CF91DF9108959C010F
:102AE000D9010D900020E9F71197A21BB30BFB0150
:102AF00080819181B901AD010E94011C0895FC0102
:102B0000DB019A016081718181E09CE1AD010E944D
:102B1000B2180895DF93CF93CDB7DEB79E01275F3C
:102B20003F4F8D819E816F817885A9010E94B615E6
:102B3000CF91DF910895CF93DF93EC0120E030E057
:102B400009C0FB01E20FF31F80831196B983A883AC
:102B50002F5F3F4F4217530729F0A881B9818C910D
:102B6000882379F7C901DF91CF910895DF93CF933F
:102B700000D0CDB7DEB7FB019A019A8389838BE938
:102B800095E1BE016F5F7F4FAF010E9441160F902C
:102B90000F90CF91DF910895BC0185E992E00E94EA
:102BA000C2020895BC0185E992E00E946A029C017C
:102BB000009731F48CE090E09093B9028093B802D2
:102BC000C9010895DF92EF92FF920F931F93DF9355
:102BD000CF93CDB7DEB729970FB6F894DEBF0FBEFF
:102BE000CDBFD82E7B01FE013196282F392F8901C8
:102BF000AE01475F5F4F03C081930F5F1F4F202FD0
:102C00002D19D8018C91882329F08A3319F0E41703
:102C1000F50791F7CE010196FC01E20FF11D10823C
:102C20000E944508DC01009749F482E090E090930F
:102C3000B9028093B8022FEF3FEF14C0F8018081F2
:102C40008A3319F060E070E003C0B8016F5F7F4F16
:102C50005D96ED91FC915E97CD01A70120E030E0FB
:102C600009959C01C90129960FB6F894DEBF0FBEE5
:102C7000CDBFCF91DF911F910F91FF90EF90DF902B
:102C800008952F923F924F925F926F927F928F9210
:102C90009F92AF92BF92CF92DF92EF92FF920F93EB
:102CA0001F93DF93CF93CDB7DEB764970FB6F89439
:102CB000DEBF0FBECDBF2C013B011A0159011B8A9B
:102CC000CC24DD24D1011C91112309F4C2C1089444
:102CD000211C311C812F90E00E940B1E892B99F042
:102CE000C301BE016F5F7F4F41E050E0F2010995E3
:102CF000019741F7898190E00E940B1E892B81F793
:102D0000DD24D394DFCF1532A9F0DD2079F4C3019F
:102D1000BE016F5F7F4F41E050E0F20109950197DE
:102D200029F0BB89BB2309F094C1D1C189818117E6
:102D300041F28FC1F10121911F01253291F4DD2073
:102D400059F4C301BE016F5F7F4F41E050E0F201D3
:102D50000995019709F098C08981853209F4B1CFAE
:102D600078C100E010E0FF241A8A2A3219F482E0C8
:102D7000F82A1DC02C3619F491E0F92A18C028361B
:102D800021F4AA89AF5FAA8B12C0822F80538A30A8
:102D900090F4C801A3E0880F991FAA95E1F7000FEE
:102DA000111F080F191F020F111D00531040F101D0
:102DB00021911F01DACF2936D1F02A3648F428357F
:102DC000F9F0233609F49FC1222309F480C10AC017
:102DD000233729F02837A1F02F3621F40CC0F2E078
:102DE000FC8B02C083E08C8BEAE0EE2E0FC093E0F8
:102DF0009C8BEE240BC0A3E0AC8B78E0E72E06C0E2
:102E0000B0E1FB2AE3E0EC8B60E1E62EDD2009F087
:102E100063C044C0F1FC10C026C0DD2059F4C301DA
:102E2000BE016E5F7F4F40E150E0F2010995181638
:102E3000190654F5005110400131110570F70115C4
:102E4000110541F1DD2031F5C301BE016E5F7F4FF9
:102E5000A801F201099518161906E4F08B89882358
:102E600009F0F7C034C1DD20A1F4D5016D917C914A
:102E7000C301A801F2010995181619062CF4E2E025
:102E8000F0E0AE0EBF1E05C0FB89FF2309F0E1C0D4
:102E90001EC1C3948B898F5F8B8B13CFC301BE017F
:102EA0006F5F7F4F41E050E0F20109950197A1F07B
:102EB0009B89992309F0CDC00AC1C301BE016F5F90
:102EC0007F4F41E050E0F2010995019729F0AB896D
:102ED000AA2309F0BEC0FBC0898190E00E940B1EAE
:102EE000892B59F7BC89B23009F042C00115110590
:102EF00011F40FEF1FEFF1FC0EC014C00150104091
:102F000099F1C301BE016F5F7F4F41E050E0F201D4
:102F10000995019749F5898190E00E940B1E892B44
:102F200069F322C0F501E080F18010C0D701DD9285
:102F30007D010150104089F0C301BE016F5F7F4FDA
:102F400041E050E0F2010995019739F4D9808D2DC7
:102F500090E00E940B1E892B49F3E2E0F0E0AE0EF8
:102F6000BF1ED7011C92C394BB89BF5FBB8BA9CE88
:102F7000C80101970F9710F00FE010E0ECE2FE2A75
:102F800052E0852E912C8C0E9D1E5CC09981903351
:102F900059F4EE2021F4F0E1FF2A48E0E42EF5FE9A
:102FA00026C083EDF8223CC0892F8153873030F44E
:102FB000EE2011F43AE0E32EB3EE23C0892F8853BC
:102FC000823058F4EE2019F42AE0E22E03C0E8E043
:102FD000EE15E0F5F3EEFF2223C0892F81548630F1
:102FE00018F08052863030F48AE08E1578F5A3EE22
:102FF000FA2216C09D3211F09B3229F4F2FE26C04F
:10300000BBEFFB220DC0983729F0983519F0DD246D
:10301000D3941DC0F4FE1AC0EFEEFE2280E1E82E2C
:10302000D4019D934D010230110550F0C301BE0142
:103030006F5F7F4F41E050E0F2010995019731F455
:10304000015010400115110509F0A0CFDD24F3FE59
:1030500003C02C2D30E03DC0F1FC35C0F4011082DE
:10306000CE01029660E070E04E2D50E00E94DC1C24
:10307000F0FE08C0D501ED91FC91608371838283DD
:10308000938309C0FA89F13059F4D501ED91FC918F
:10309000CB0160839183E2E0F0E0AE0EBF1E12C070
:1030A00095012E5F3F4FFA89FF2329F0D501ED915D
:1030B000FC91608306C0D501ED91FC91CB0160834A
:1030C00091835901C394BB89BF5FBB8BFBCD2FEFAD
:1030D0003FEFC90164960FB6F894DEBF0FBECDBFB7
:1030E000CF91DF911F910F91FF90EF90DF90CF90E4
:1030F000BF90AF909F908F907F906F905F904F9018
:103100003F902F9008950115110509F083CE01E03D
:1031100010E080CECF92DF92EF92FF920F931F9339
:10312000CF93DF936C018B017A01E90107C0C801DD
:10313000B70140E150E0F60109956097C131D10532
:10314000B4F71C161D062CF4C801B701AE01F60138
:103150000995DF91CF911F910F91FF90EF90DF9034
:10316000CF9008952F923F924F925F926F927F92ED
:103170008F929F92AF92BF92CF92DF92EF92FF9287
:103180000F931F93DF93CF93CDB7DEB76D970FB635
:10319000F894DEBF0FBECDBF998F888F7B8F6A8F6B
:1031A0001A0149011D8A1C8A9E012E5E3F4F3D8FE8
:1031B0002C8FB10103C00894211C311CD101FC905B
:1031C000FF2019F0B5E2FB16B1F78101061B170BC2
:1031D00061F08A8D9B8DA801E88DF98D09952C8968
:1031E0003D89200F311F3D8B2C8BFF2009F4EEC24F
:1031F0000894211C311C19821E8A442455246624FB
:103200006A94762CD101BD901D01B0E2BB1621F469
:1032100089818823B9F703C0EBE2BE1611F4B982A5
:10322000F1CFFDE2BF1621F42E8924602E8BEACF68
:1032300033E2B31621F44E8941604E8BE3CF80E335
:10324000B81621F49E8990619E8BDCCFACE6BA164D
:1032500021F4BE89B860BE8BD5CFEAE7BE1691F2E5
:10326000FAE2BF1681F4C4010296D4014D905C903D
:1032700057FE07C0BE89B460BE8B5094419451087C
:1032800053944C01BFCFEEE2BE1691F5D1018C9163
:103290008A3219F06624772422C00894211C311C3C
:1032A000F4016080718022E030E0820E931E1DC028
:1032B000C301E3E0880F991FEA95E1F7660C771CDC
:1032C000860D971D622E772467FC7094A0EDBFEFEA
:1032D0006A0E7B1E680E791E0894211C311CF101B8
:1032E0002081822F80538A3018F377FE8BCF87CFCF
:1032F0008B2D8153893028F54B2C552420ED3FEF41
:10330000420E531E17C0C20163E0880F991F6A95D1
:10331000E1F7440C551C840D951D422E552447FCA5
:103320005094A0EDBFEF4A0E5B1E480E591E089444
:10333000211C311CF1012081822F80538A3018F327
:1033400061CFF401BF8A27E62B15E8F035E6B31606
:1033500008F0B0C140E5B416C1F14B1548F085E462
:10336000B81609F4A7C197E4B91609F0A7C1A2C11C
:10337000A3E6BA1611F1AB1508F475C0B8E5BB1693
:1033800009F09CC138C120E7B21609F434C12B15ED
:1033900048F039E6B31609F466C04FE6B41609F0F2
:1033A0008DC1D9C08F89853709F45CC0883709F48D
:1033B00022C1833709F082C128C0A2E0B0E08A0EA2
:1033C0009B1E80818A8319827FC122E030E0820EB9
:1033D000931EE080F180E114F10439F445E0C42E3D
:1033E00042E0D42E33E73F8B1DC0C7010E941A1E56
:1033F00001960E94D215182F092FB7010E94131EA3
:10340000212F302FC9016C0106C082E090E0880EA8
:10341000991EC080D180C114D10421F435E0C32E9F
:1034200032E0D32E77FC0FC0C60160E070E0A3014C
:103430000E94281E009789F08C010C191D09601646
:1034400071065CF00BC0D6010D900020E9F78D01EC
:10345000015010400C191D0901C083011982EE248E
:10346000FF243BC11982BE89B3FF09C024E030E0CC
:10347000820E931EE080F1800281138113C0C4018B
:103480000296D4012D913C91B5E7BB1629F44C016D
:10349000790100E010E015C04C0179010027F7FC2C
:1034A0000095102FE5E7BE1661F017FF0AC01095D2
:1034B0000095F094E094E11CF11C011D111DFDE24A
:1034C000F98377FC03C02E892F7E2E8BE114F10443
:1034D0000105110549F46114710461F422E1C22E61
:1034E000D12CCC0EDD1E31C03AE0E316F10401050B
:1034F000110548F491E1C92ED12CCC0EDD1E8E2D84
:10350000805D898B22C082E1C82ED12CCC0EDD1EBD
:10351000C801B7012AE030E040E050E00E94BA1C48
:10352000605DD6016E936D01C801B7012AE030E0FD
:1035300040E050E00E94BA1CC901DA017C018D0113
:10354000E114F1040105110519F70C8D1D8D0C19FD
:103550001D09BF8AADC0BE89B3FF09C024E030E0B9
:10356000820E931E608171818281938109C082E005
:1035700090E0880E991E80819181BC0180E090E0EE
:10358000198277FC03C0AE89AF7EAE8B61157105E1
:103590008105910549F46114710431F4B2E1CB2E37
:1035A000D12CCC0EDD1E20C0A2E1CA2ED12CCC0E17
:1035B000DD1E262F2770205DF60122936F01F3E0B8
:1035C0009695879577956795FA95D1F76115710569
:1035D0008105910571F7FE89F0FF06C0203321F0C7
:1035E000D601E0E3EE936D010C8D1D8D0C191D09C4
:1035F000FFE6FF8B5DC020E7B21679F482E090E031
:10360000880E991E808191819C0140E050E09E8946
:1036100091609E8BA8E7AF8B16C0BE89B3FF09C02F
:1036200024E030E0820E931E20813181428153815B
:1036300009C082E090E0880E991E808191819C01F2
:1036400040E050E0BF8A77FC03C09E899F7E9E8B3E
:10365000AF89A83519F06CE072E002C06DE172E04C
:103660001982E2E1CE2ED12CCC0EDD1EF901EF70D5
:10367000F070E60FF71F8081F60182936F0194E0EE
:1036800056954795379527959A95D1F72115310588
:103690004105510559F7FE89F0FF06C0D601EF89B3
:1036A000EE93E0E3EE936D010C8D1D8D0C191D0959
:1036B000730113C024E030E0820E931EBB2009F496
:1036C00085C0BA821982BF8A82E0C82ED12CCC0E66
:1036D000DD1EEE24FF2401E010E058010E151F0549
:1036E0000CF457018981882319F00894A11CB11C9E
:1036F0009E89892F90E09B8B8A8B3C01A4E16A22F2
:1037000077246114710459F492012A193B09888DB8
:10371000998D6A8D7B8D4EE252E00E948A188981D4
:10372000882351F08A8D9B8DBE016F5F7F4F41E0F2
:1037300050E0E88DF98D0995F0E16F16710459F4A8
:1037400092012A193B09888D998D6A8D7B8D4EE3F4
:1037500052E00E948A18E01AF10A888D998D6A8DCC
:103760007B8D4EE352E097010E948A1801151105E6
:1037700041F08A8D9B8DB601A801288D398DF90104
:1037800009953F89303519F4C6010E94CC154A8944
:1037900042FF0BC092012A193B09888D998D6A8DD1
:1037A0007B8D4EE252E00E948A184A145B043CF082
:1037B0008C899D89840D951D9D8B8C8BFACCAC8951
:1037C000BD89AA0DBB1DBD8BAC8BF3CC8C899D89AB
:1037D0006D960FB6F894DEBF0FBECDBFCF91DF91CF
:1037E0001F910F91FF90EF90DF90CF90BF90AF901F
:1037F0009F908F907F906F905F904F903F902F9011
:103800000895DC011296ED91FC911397309729F4FD
:103810001796ED91FC91189708C0018CF28DE02D60
:10382000309719F42FEF3FEF03C0CD0109959C01AC
:10383000C9010895FC018081823751F0873719F062
:103840008136C9F40AC081E093E042E053E009C048
:1038500080E090E042E050E004C089E091E04AE07E
:1038600051E060E070E411C02B3271F0223619F49F
:1038700060E070E80AC086E190E09093B90280931E
:10388000B8022FEF3FEF08C0CA01319620812223F2
:1038900059F79C01262B372BC90108950F931F93CD
:1038A000DF93CF930F92CDB7DEB78C01FC018481FB
:1038B00083FF05C0877F8483258136811CC0F80182
:1038C00080819181BE016F5F7F4F41E050E00E9497
:1038D000821C8130910561F0F8012481892B11F05F
:1038E000206102C02062F80124832FEF3FEF03C064
:1038F0008981282F30E0C9010F90CF91DF911F916E
:103900000F910895DC011296ED91FC911397309779
:1039100029F41596ED91FC91169708C00788F08D53
:10392000E02D309719F42FEF3FEF03C0CD0109953B
:103930009C01C9010895629FD001739FF001829F8D
:10394000E00DF11D649FE00DF11D929FF00D839F2E
:10395000F00D749FF00D659FF00D9927729FB00DCB
:10396000E11DF91F639FB00DE11DF91FBD01CF01DE
:1039700011240895A1E21A2EAA1BBB1BFD010DC044
:10398000AA1FBB1FEE1FFF1FA217B307E407F5070F
:1039900020F0A21BB30BE40BF50B661F771F881FEB
:1039A000991F1A9469F760957095809590959B0181
:1039B000AC01BD01CF0108952F923F925F926F92AB
:1039C0007F928F929F92AF92BF92CF92DF92EF92AF
:1039D000FF920F931F93CF93DF938C011B01EA019A
:1039E0006115710519F0FB0191838083209749F0DF
:1039F000CE010297839728F020E030E040E050E0CD
:103A0000F6C0F801A1908F018A2D90E00E940B1E54
:103A1000892BB9F7FDE2AF1631F4F801A1908F01BF
:103A20005524539407C0FBE2AF1619F4F801A19096
:103A30008F015524209719F0C031D105C1F4F0E36E
:103A4000AF1679F4F8018081883711F0883549F490
:103A5000F801A1800E5F1F4FF2E05F2AC0E1D0E0C5
:103A600006C0209721F480E3A816E9F427C0C830E7
:103A7000D10531F1C930D10524F4C230D10531F579
:103A80000CC0CA30D10589F0C031D105F9F4C12C80
:103A9000D12CE12CB8E0FB2E28C0C12CD12CE12C7C
:103AA000A0E4FA2E22C0CAE0D0E0FCECCF2EFCEC61
:103AB000DF2EFCECEF2EFCE0FF2E17C0C8E0D0E0BC
:103AC000C12CD12CE12CE0E1FE2E0FC09E01442739
:103AD00037FD4095542F60E070E080E090E80E9450
:103AE000BA1CC901DA016C017D0120E030E040E040
:103AF00050E060E03E01882477FC8094982C70EDC3
:103B0000B72EBA0CE9E0EB1570F48A2D81548A3196
:103B100018F499ECB92E06C08A2D81568A3150F5D9
:103B200089EAB82EBA0C8B2D90E08C179D0714F5FE
:103B30006F3FE1F0C216D306E406F506B0F0CA0105
:103B4000B901A40193010E949B1C9B01AC012B0DA8
:103B5000311D411D511D2130F0E03F07F0E04F07BE
:103B6000F0E85F0710F461E001C06FEFF801A19089
:103B70008F01C5CF2114310481F0662331F001504B
:103B80001040F1011183008308C051FE1AC0025099
:103B90001040F1011183008314C067FF12C050FC74
:103BA00005C02FEF3FEF4FEF5FE704C020E030E0AC
:103BB00040E050E882E290E09093B9028093B8022E
:103BC00016C050FE08C050954095309521953F4F46
:103BD0004F4F5F4F0CC057FF0AC082E290E09093B6
:103BE000B9028093B8022FEF3FEF4FEF5FE7B901C3
:103BF000CA01DF91CF911F910F91FF90EF90DF905D
:103C0000CF90BF90AF909F908F907F906F905F907C
:103C10003F902F900895911187C0803219F08950FC
:103C20008550D0F70895FB01DC0105900D9200202E
:103C3000E1F70895FC0105900020E9F78095909543
:103C40008E0F9F1F089541E952E00E945D1E089566
:103C5000FC014150504030F001900616D1F73197E9
:103C6000CF010895882799270895FB01DC0104C03E
:103C70008D910190801921F441505040C8F7881B64
:103C8000990B0895FC018191861721F08823D9F7BB
:103C9000992708953197CF010895FB01DC018D919B
:103CA000019080190110D9F3990B0895FB01DC01F3
:103CB00001900D920020E1F70895FA01A191B081E1
:103CC000009719F41097E1F0CD01DC01CD010D90C2
:103CD000002011F4C00113C0FB012191222319F02F
:103CE0002015D9F7F3CFFB012191201519F41E926D
:103CF000119606C02223C1F70D900020A1F7D00134
:103D0000FA01A193B0830895DC01CB01FC01E19994
:103D1000FECF06C0FFBBEEBBE09A31960DB20D920E
:103D200041505040B8F70895992788270895F8948E
:023D3000FFCFC3
:103D3200756172743000722B000D0A3D2057656C5C
:103D4200636F6D6520746F2052656D4C6162204B0C
:103D520032203D0D0A00456E74657220796F7572CE
:103D620020636F6D6D616E643A0025730D0A002049
:103D7200002564008025000069646C65006D61693E
:103D82006E00FF4F530065746865726E75740000B3
:103D92000000001C0A00007561727430000000000F
:103DA2000500000000008801540FD20FA1129714E1
:103DB2008F1498115712700F0000000000000000CD
:103DC20000000000000000000000000000000000F1
:103DD20000000000000000000000000000000000E1
:103DE20000000000000000000000000000000000D1
:103DF2000000000000390E260E9A0C9C0C610C513A
:103E02000CE80D9D0D600D780B2B0D900B020D9E95
:103E12000BDE0BA60BC40C3B0C000000005C0E007A
:103E2200000000C50E0100020003000000000000B7
:103E32000000000000286E756C6C290030313233AE
:103E42003435363738396162636465660030313241
:103E52003334353637383941424344454600202011
:103E62002020202020202020202020202020303030
:0E3E72003030303030303030303030303030A2
:00000001FF
